{
  "_format": "hh-sol-artifact-1",
  "contractName": "Akka",
  "sourceName": "contracts/Akka.sol",
  "abi": [
    {
      "inputs": [],
      "name": "helloDeFi",
      "outputs": [
        {
          "internalType": "string",
          "name": "",
          "type": "string"
        }
      ],
      "stateMutability": "nonpayable",
      "type": "function"
    }
  ],
  "bytecode": "0x608060405234801561001057600080fd5b50610173806100206000396000f3fe608060405234801561001057600080fd5b506004361061002b5760003560e01c80632fb7332014610030575b600080fd5b61003861004e565b604051610045919061011b565b60405180910390f35b60606040518060400160405280600c81526020017f416b6b612046696e616e63650000000000000000000000000000000000000000815250905090565b600081519050919050565b600082825260208201905092915050565b60005b838110156100c55780820151818401526020810190506100aa565b60008484015250505050565b6000601f19601f8301169050919050565b60006100ed8261008b565b6100f78185610096565b93506101078185602086016100a7565b610110816100d1565b840191505092915050565b6000602082019050818103600083015261013581846100e2565b90509291505056fea264697066735822122082e351df204df21279383ba31a82dbf725a621e6ddee804154f8bbcbb24b92ce64736f6c63430008110033",
  "linkReferences": {},
  "deployedLinkReferences": {}
}